:100000000C948B190C94CB190C94CB190C94CB1920
:100010000C94CB190C94CB190C94CB190C94CB19D0
:100020000C94CB190C94CB190C94CB190C94CB19C0
:100030000C94CB190C94CB190C94CB190C94CB19B0
:100040000C94CB190C9473950C94CB190C94CB197C
:100050000C94CB190C947C8F0C94CB190C9429D153
:100060000C94CB190C94E65D0C94DC5D0C94CB19CC
:100070000C94CB190C94CB190C94CB190C94CB1970
:100080000C94CB190C94CB190C94CB190C94CB1960
:100090000C94CB190C94CB190C94CB190C94CB1950
:1000A0000C94CB190C94CB190C94CB190C94CB1940
:1000B0000C94CB190C94CB190C94CB190C94CB1930
:1000C0000C94CB190C94CB190C94CB190C94CB1920
:1000D0000C94CB190C94CB190C94CB190C94CB1910
:1000E0000C94CB19084AD73B3BCE016E84BCBFFDB4
:1000F000C12F3D6C74319ABD56833DDA3D00C77FF8
:1001000011BED9E4BB4C3E916BAAAABE0000008090
:100110003F05A84CCDB2D44EB93836A9020C50B91F
:10012000918688083CA6AAAA2ABE000000803F0744
:10013000634236B79BD8A71A39685618AEBAAB5582
:100140008C1D3CB7CC5763BD6DEDFD753EF6177247
:1001500031BF000000803F08000000BE9224491219
:100160003EABAAAA2ABECDCCCC4C3E00000080BE3D
:10017000ABAAAAAA3E00000000BF000000803F001A
:1001800000000000084178D3BB4387D1133D190E0E
:100190003CC3BD4282AD2B3E68EC8276BED98FE176
:1001A000A93E4C80EFFFBE01C4FF7F3F000000006E
:1001B00000004E414E494E495459494E46CDCCCC93
:1001C0003D0AD7233C17B7D13877CC2B329595E62B
:1001D000241FB14F0A000020410000C84200401C0B
:1001E0004620BCBE4CCA1B0E5AAEC59D7400407A58
:1001F00010F35A00A0724E18090010A5D4E80000B0
:10020000E87648170000E40B54020000CA9A3B004D
:100210000000E1F505000080969800000040420FC4
:10022000000000A08601000000102700000000E888
:1002300003000000006400000000000A000000004D
:10024000000100000000002C76D888DC674F0823EE
:10025000DFC1DFAE59E1B1B796E5E3E453C63AE654
:1002600051997696E8E6C28426EB898C9B62ED4034
:100270007C6FFCEFBC9C9F40F2BAA56FA5F4900583
:100280005A2AF75C936B6CF9676DC11BFCE0E40DB7
:1002900047FEF520E6B500D0ED902E0300943577AB
:1002A000050080841E080000204E0A000000C80CD3
:1002B000333333330F986E12831141EF8D2114893C
:1002C0003BE65516CFFEE6DB18D1844B381BF77C96
:1002D0001D901DA4BBE424203284725E228100C9DB
:1002E000F124ECA1E53D27434F4D4D554E49434187
:1002F00054494F4E0044525952554E004552524FA8
:10030000525300494E464F004543484F000D0E03DF
:1003100002260E0F3812133E1A1C180A0908000193
:10032000506C656173652052657365740050524965
:100330004E5445522048414C5445440025533A20E0
:100340002553004B494C4C45442E20005072696E99
:100350007465722068616C7465642E206B696C6CC6
:1003600028292063616C6C6564210A00006563685C
:100370006F3A004572726F723A0020440020204D9F
:10038000323030205300202844697361626C656408
:10039000293A0046696C616D656E742073657474EA
:1003A000696E67730020204D3230312058004D6156
:1003B0007820416363656C65726174696F6E202893
:1003C000756E6974732F7332290020204D323033DB
:1003D0002058004D617820666565647261746573AC
:1003E0002028756E6974732F732900205200202015
:1003F0004D323034205000416363656C6572617426
:10040000696F6E2028756E6974732F7332292028E6
:10041000503C7072696E742D616363656C3E20524E
:100420003C726574726163742D616363656C3E2018
:10043000543C74726176656C2D616363656C3E2912
:1004400000204A0020540020530020204D32303537
:10045000204200416476616E6365642028423C6DF1
:10046000696E5F7365676D656E745F74696D655FF6
:1004700075733E20533C6D696E5F6665656472619D
:1004800074653E20543C6D696E5F74726176656C74
:100490005F66656564726174653E204A3C6A756E8C
:1004A000635F6465763E29002044002049002020D7
:1004B0004D333031205000486F74656E64205049D0
:1004C00044003B200020496E76616C6964206578A9
:1004D000747275646572200047322F473320626161
:1004E0006420706172616D65746572730A004732D1
:1004F0002F47332062616420706172616D6574659D
:1005000072730A00536C6565702E2E2E00436C6961
:10051000636B20746F20526573756D652E2E2E00EF
:100520004E6F204D6F76652E00456E642066696CB7
:1005300065206C6973740A00426567696E2066699C
:100540006C65206C6973740A004E6F206D65646978
:10055000610A00534420636172642072656C6561B6
:100560007365640A00286E6F2066696C6529004314
:10057000757272656E742066696C653A20004E6F04
:1005800074205344207072696E74696E670A005358
:1005900044207072696E74696E6720627974652098
:1005A000002E0A0044656C6574696F6E206661698F
:1005B0006C65642C2046696C653A200046696C6560
:1005C0002064656C657465643A0043616E6E6F7497
:1005D000206F70656E2073756264697220002569F2
:1005E000730025696D2025697300256968202569D8
:1005F0006D202569730025696420256968202569B7
:100600006D20256973002569792025696420256995
:10061000682025696D20256973005072696E742009
:1006200074696D653A20003F43616E6E6F74207788
:100630007269746520746F20494E5055540A003F0A
:10064000496E76616C69642050696E204D6F6465F7
:100650000A006F6B004C696E653A20006F66660099
:1006600008030303FC02F502E70244454255473AFA
:10067000004D3131332053005631434E432064390D
:10068000633338643153204F46462E002073206672
:100690006F72206C61736572207361666574792E68
:1006A0000A004D31382074696D656F7574206D7561
:1006B0007374206265203E2000207320666F7220D4
:1006C0006C61736572207361666574792E0A003FF0
:1006D0004D38352074696D656F7574206D75737450
:1006E000206265203E200020732E0A00496E61635F
:1006F0007469766974792074696D656F757420000A
:10070000434F4E4649475F4558504F5254004D4560
:1007100041545041434B00434F4F4C45525F544569
:100720004D5045524154555245004348414D424574
:10073000525F54454D504552415455524500455025
:100740005F4241425953544550004241425953542B
:10075000455050494E470041524353004D4F544974
:100760004F4E5F4D4F44455300544845524D414C08
:100770005F50524F54454354494F4E0045585445DD
:100780004E4445445F4D323000435553544F4D5F06
:100790004649524D574152455F55504C4F414400D8
:1007A0004C464E5F5752495445004C4F4E475F46AA
:1007B000494C454E414D45004155544F5245504FCF
:1007C00052545F53445F5354415455530053445F54
:1007D000575249544500524550454154004D554CDF
:1007E00054495F564F4C554D450053444341524484
:1007F0000050524F4D50545F535550504F5254007B
:10080000484F53545F414354494F4E5F434F4D4D02
:10081000414E445300454D455247454E43595F5064
:100820004152534552004C415345520043415345B8
:100830005F4C494748545F4252494748544E4553DC
:100840005300544F47474C455F4C49474854530069
:10085000534F4654574152455F504F5745520042FF
:1008600055494C445F50455243454E54004C455603
:10087000454C494E475F44415441005A5F50524FE6
:1008800042450052554E4F5554004155544F4C452A
:1008900056454C005052494E545F4A4F4200505208
:1008A0004F4752455353004155544F5245504F52B4
:1008B000545F54454D50004155544F5245504F528E
:1008C000545F504F5300564F4C554D455452494379
:1008D00000454550524F4D0042494E4152595F46E6
:1008E000494C455F5452414E534645520053455280
:1008F00049414C5F584F4E5F584F4646004649525B
:100900004D574152455F4E414D453A4D61726C69BC
:100910006E20643963333864315320437573746FC8
:100920006D20284D61722032352032303236203130
:10093000363A34363A33322920534F555243455FC5
:10094000434F44455F55524C3A6769746875622E4F
:10095000636F6D2F4D61726C696E4669726D776160
:1009600072652F4D61726C696E2050524F544F4327
:100970004F4C5F56455253494F4E3A312E30204D21
:10098000414348494E455F545950453A5631434ECC
:1009900043206439633338643153204B494E454D0D
:1009A00041544943533A43617274657369616E20DF
:1009B00045585452554445525F434F554E543A3171
:1009C00020555549443A63656465326132662D3479
:1009D0003161322D343734382D396231322D63355F
:1009E00035633632663336376666002F2F004D3159
:1009F000343520533C696E6465783E206F757420F1
:100A00006F662072616E67652028302D31290A00DB
:100A10003F4A206F7574206F662072616E67652093
:100A200028302E303120746F20302E33290A0025D3
:100A30000A0046523A0020466C6F773A2000507206
:100A40006F7465637465642050696E0A006469732D
:100A500000656E0043290061626C656420286D6941
:100A60006E2074656D702000436F6C64206578742F
:100A70007275646573206172652000486F6D652032
:100A80002573204669727374004F666673657473CC
:100A9000204170706C696564004D494E2F4D41587E
:100AA00020546F6F2046617200546F6F2066617230
:100AB0002066726F6D204D494E2F4D41580A0045FA
:100AC0004550524F4D204F4B0A00446F6E652070C9
:100AD00072696E74696E672066696C650A004D37CD
:100AE00037004D3331005A580A0058590A00595AF4
:100AF0000A00576F726B737061636520506C616E92
:100B000065200053656C65637420776F726B73703A
:100B1000616365200020204D323036205800486F38
:100B20006D65206F6666736574004361703A0020DE
:100B3000746F6F206C6F6E6720657874727573695F
:100B40006F6E2070726576656E7465640A0020634E
:100B50006F6C6420657874727573696F6E20707243
:100B60006576656E7465640A0020573A00436F6FBE
:100B70006C696E672E2E2E004531202553002046CD
:100B80000020420020204D31303420530041757444
:100B90006F2054656D7020436F6E74726F6C00200F
:100BA000573A0042656420436F6F6C696E672E2E62
:100BB0002E004265642048656174696E672E2E2E92
:100BC00000206661696C656421204261642068656B
:100BD000617465722069640A00504944204175744B
:100BE0006F74756E650023646566696E65204445A3
:100BF0004641554C545F004B4420004B4920004B6C
:100C00005020002066696E69736865642120507504
:100C10007420746865206C617374204B702C204BB9
:100C20006920616E64204B6420636F6E7374616E23
:100C300074732066726F6D2062656C6F7720696EC9
:100C4000746F20436F6E66696775726174696F6E49
:100C50002E680A00504944204175746F74756E65A2
:100C600000206661696C6564212074696D656F752B
:100C7000740A00504944204175746F74756E6500A4
:100C8000206661696C6564212054656D70657261D0
:100C90007475726520746F6F20686967680A005008
:100CA0004944204175746F74756E65005049442045
:100CB0004379636C65730025532025692F256900EE
:100CC000204B643A2000204B693A2000204B703AB8
:100CD000200020436C617373696320504944200AEB
:100CE000002054753A2000204B753A2000206D6199
:100CF000783A2000206D696E3A200020643A200086
:100D000020626961733A200048656174696E672EDC
:100D10002E2E002073746172740A005049442041E1
:100D200075746F74756E6500206661696C65642109
:100D30002054656D706572617475726520746F6F93
:100D400020686967680A00504944204175746F74CF
:100D5000756E6500504944204175746F74756E65F9
:100D6000004572723A207574663820666F6E742082
:100D70006E6F7420696E697469616C697A65642E3E
:100D8000004572723A207574663820666F6E742062
:100D90006E6F7420696E697469616C697A65642E1E
:100DA000004572723A207574663820666F6E742042
:100DB0006E6F7420696E697469616C697A65642EFE
:100DC0000020003A003A002568753A2530326875EF
:100DD0000025303268753A2530326875002530328A
:100DE00068752725303268750025687564202530C0
:100DF0003268753A253032687500200025002020C1
:100E00002020202020002020202000657272001F5A
:100E1000E020102010201010201020201020103072
:100E2000300840048003001FE03FF03FF03FF01F18
:100E3000E01FE03FF03FF03FF00FC0078003003FAE
:100E4000FFF038007030FC3020FC1020781020308B
:100E5000102C00D02E31D02F7BD02F7BD02E31D034
:100E60002C00D020301020781020FC1030FC3038BE
:100E700000703FFFF03FFFF038007031863023876D
:100E8000102787902F87D02F03D020301020781084
:100E90002078102030102F03D02F87D02787902361
:100EA00087103186303800703FFFF01FFFF81FFFBA
:100EB000F804104002082002082004104008208096
:100EC0001041001041000820800410400000001F65
:100ED000FFF81FFFF842656400456E636C6F737521
:100EE0007265005072696E742041626F727465643D
:100EF000004D32350050617573696E672E2E2E00DD
:100F00004D32340046696C2E204469612E004F66D4
:100F100066004F6E004520696E206D6D5E330020C7
:100F2000082046616374002008204D617800200885
:100F3000204D696E004D696E2054726176656C209B
:100F40005370656564004D696E2056656C6F63690A
:100F50007479004D61782040205370656564004DC0
:100F60006178204520416363656C004D61782040C5
:100F700020416363656C0054726176656C20416347
:100F800063656C00526574726163742041636365CC
:100F90006C00416363656C00402073746570732F4F
:100FA0006D6D00416476616E636564205365747491
:100FB000696E6773003F0043616E63656C00496E44
:100FC0006974004D34323800496E697469616C6926
:100FD0007A6520454550524F4D0046696C616D65FC
:100FE0006E740054656D706572617475726500533E
:100FF000746570732F6D6D004A756E6374696F6EE2
:101000002044657600416363656C65726174696F45
:101010006E004D617820537065656420286D6D2FDA
:1010200073290053657420486F6D65204F666673A1
:1010300065747300436F6E66696775726174696F7A
:101040006E00426564004E6F7A7A6C650046616E90
:1010500020537065656400436F6E666967757261E1
:1010600074696F6E00526573746F726520446566B3
:1010700061756C7473004C6F61642053657474699E
:101080006E67730053746F72652053657474696E74
:10109000677300507265686561742024205365741D
:1010A00074696E677300416476616E636564205392
:1010B000657474696E6773004D61696E204D656E6D
:1010C0007500473932205830205930205A300A4DA7
:1010D0003131372055736572205363726970742003
:1010E000446F6E6500473238205A0A4D313137203F
:1010F000557365722053637269707420446F6E6516
:1011000000473238205820590A4D31313720557365
:1011100065722053637269707420446F6E65004875
:101120006F6D652058265900486F6D65205A204123
:1011300078697300526573657420416C6C20436F4D
:101140006F7264696E61746573004D61696E204DE4
:10115000656E75003F004261636B0053746F7000F1
:1011600053656C6563742066726F6D205344204331
:101170006172640052656C6561736520534420435D
:10118000617264004D323200563120437573746FC2
:101190006D204D656E7500436F6E6669677572618F
:1011A00074696F6E0054656D7065726174757265F7
:1011B000004C6173657220436F6E74726F6C004DEA
:1011C0006F74696F6E00526573756D65205072693A
:1011D0006E740054756E650053746F7020507269A0
:1011E0006E74005061757365205072696E740049A9
:1011F0006E666F2053637265656E003F00537461C5
:101200007274205072696E740043616E63656C0085
:101210005072696E740043616E6E6F7420656E74F7
:101220006572207375626469723A200002202E2E66
:10123000004D61696E204D656E7500000C0F00FE5B
:1012400007022503BB017FFE08FE08FE050808060D
:10125000000040F0C888889878100508080600004B
:10126000C0F88888888888F80505050600012030C0
:10127000F830200508080600002070F82020202003
:10128000E00509090600FF2070A8A8B8888870202A
:10129000070505070001D86C366CD805090906005A
:1012A000FFF8A88888888888A8F8050A0A0600FE3A
:1012B000205050505088A8A88870030303060003EC
:1012C00040A040FFFFFFFFFFFFFFFFFFFFFFFFFF0B
:1012D000FFFFFFFFFFFFFFFFFF0000000605FF010C
:1012E00007070602008080808080008003030306D9
:1012F0000105A0A0A005060606000050F85050F811
:10130000500509090600FF2070A8A07028A87020C9
:10131000050707060000C8C8102040989805070771
:1013200006000040A0A040A8906801030306020543
:101330008080800309090601FF20404080808040B2
:1013400040200309090601FF804040202020404042
:101350008005070706000020A8702070A82005055A
:10136000050600012020F820200203030601FFC02B
:101370004080050101060003F8020202060100C0D8
:10138000C005070706000008101020404080050730
:1013900007060000708898A8C88870030707060130
:1013A0000040C040404040E005070706000070884C
:1013B00008102040F8050707060000F8081030085C
:1013C000887005070706000010305090F8101005CF
:1013D0000707060000F880F0080888700507070670
:1013E0000000304080F0888870050707060000F88C
:1013F000081010202020050707060000708888705C
:1014000088887005070706000070888878081060D3
:10141000020505060100C0C000C0C00206060601A4
:10142000FFC0C000C04080030505060101204080C8
:101430004020050303060002F800F8030505060135
:1014400001804020408005070706000070881020BA
:101450002000200507070600007088B8A8B8807033
:10146000050707060000708888F888888805070740
:10147000060000F04848704848F0050707060000DD
:1014800070888080808870050707060000F0484853
:10149000484848F0050707060000F88080F0808083
:1014A000F8050707060000F88080F08080800507B7
:1014B000070600007088808098887005070706007E
:1014C00000888888F8888888030707060100E040BC
:1014D00040404040E005070706000038101010109B
:1014E00090600507070600008890A0C0A0908805BE
:1014F0000707060000808080808080F805070706C7
:10150000000088D8A8888888880507070600008812
:1015100088C8A8988888050707060000708888880A
:10152000888870050707060000F08888F0808080B2
:1015300005070706000070888888A89068050707D7
:10154000060000F08888F0A09088050707060000D4
:1015500070888070088870050707060000F8202052
:1015600020202020050707060000888888888888B2
:1015700070050707060000888888885050200507F6
:101580000706000088888888A8A850050707060075
:101590000088885020508888050707060000888842
:1015A0005020202020050707060000F808102040E2
:1015B00080F80309090601FFE08080808080808038
:1015C000E0050707060000804040201010080309CE
:1015D000090601FFE020202020202020E005030351
:1015E0000600052050880501010600FEF8030303EC
:1015F0000601058040200505050600007008788872
:10160000780507070600008080F0888888F00505C7
:101610000506000070808088700507070600000836
:101620000878888888780505050600007088F080AD
:1016300070050707060000304840E04040400507BD
:10164000070600FE7088888878087005070706007E
:10165000008080F088888888030707060100400022
:10166000C0404040E00409090601FE10003010109F
:101670001010906005070706000080808890E090B9
:1016800088030707060100C04040404040E00505D0
:1016900005060000D0A8A8A8A8050505060000B00A
:1016A000C888888805050506000070888888700548
:1016B00007070600FEF0888888F080800507070687
:1016C00000FE78888888780808050505060000B0BF
:1016D000C880808005050506000078807008F00548
:1016E00007070600002020F8202020180505050621
:1016F00000008888889868050505060000888888A5
:1017000050200505050600008888A8A85005050595
:1017100006000088502050880507070600FE8888CC
:101720008850204080050505060000F8102040F88C
:101730000309090601FF204040408040404020014D
:1017400009090602FF8080808080808080800309F4
:10175000090601FF804040402040404080050303CF
:1017600006000248A890FF41425300504C4100102F
:1017700000AA00F03FAA002100486F74656E642043
:10178000746F6F20636F6C64004261636B00507212
:101790006F63656564004D6F76652045787472757A
:1017A000646572004D6F74696F6E004469736162A5
:1017B0006C65205374657070657273004D38340029
:1017C0004732385A004732385900486F6D6520401B
:1017D0000047323858004175746F20486F6D6500BE
:1017E000473238004D61696E204D656E750046695F
:1017F00072652050756C7365005465737420507564
:101800006C7365206D73004F6666004F6E00546FF9
:1018100067676C65204C61736572004C617365721B
:1018200020506F776572004D61696E204D656E7551
:101830000050726568656174202420426564005020
:10184000726568656174202420486F74656E640059
:1018500054656D7065726174757265006B176717FA
:10186000436F6F6C646F776E00507265686561746A
:1018700020240046616E20537065656400426564F3
:10188000004E6F7A7A6C65004D61696E204D656E11
:101890007500466C6F770046616E20537065656415
:1018A00000426564004E6F7A7A6C6500537065651E
:1018B00064004D61696E204D656E75006F70656ED8
:1018C00000545249474745524544003A20007A5F48
:1018D0006D696E00795F6D696E00785F6D696E008D
:1018E0005265706F7274696E6720656E6473746F91
:1018F00070207374617475730A00000000000000AA
:101900000000000000005761726E696E673A20485F
:101910006F6D696E672042756D70204469766973DA
:101920006F72203C20310A000202040000A0400037
:1019300000A0400000A040000000010000000100E5
:10194000008000555555000000400033333300AA95
:10195000AA2A004992240000002000C7711C0099A7
:10196000991900D1451700555515003BB1130024B6
:1019700049120011111100000010000F0F0F00E3B9
:10198000380E0043790D00CCCC0C00C3300C00E8BD
:10199000A20B0064210B00AAAA0A00703D0A009D58
:1019A000D80900427B090092240900DCD308008892
:1019B0008808001042080000000800F0C1070087F6
:1019C00087070075500700711C07003EEB0600A159
:1019D000BC06006990060066660600703E0600615F
:1019E00018060017F4050074D105005BB00500B2BD
:1019F000900500627205005555050078390500B85C
:101A00001E0500050505004EEC040087D40400A166
:101A1000BD040090A7040049920400C17D0400EEBB
:101A2000690400C7560400444404005C3204000802
:101A300021040041100400000004003FF00300F8FE
:101A4000E0030026D20300C3C30300CCB503003A71
:101A5000A803000A9B0300388E0300C08103009F87
:101A6000750300D0690300505E03001D530300346A
:101A7000480300913D030033330300162903003867
:101A80001F030097150300300C0300030303000B32
:101A9000FA020049F10200BAE802005CE002002DFF
:101AA000D802002DD0020059C80200B0C002003197
:101AB000B90200DAB10200AAAA0200A0A30200BC87
:101AC0009C0200FA9502005C8F0200DF880200820F
:101AD000820200457C020027760200277002004344
:101AE0006A02007C640200D05E02003F590200C816
:101AF000530200FFFDFCFAF8F6F4F2F0EEECEAE92E
:101B0000E7E5E3E1E0DEDCDAD9D7D5D4D2D0CFCD3A
:101B1000CBCAC8C7C5C3C2C0BFBDBCBAB9B7B6B4CB
:101B2000B3B2B0AFADACAAA9A8A6A5A4A2A1A09E2D
:101B30009D9C9A99989795949392908F8E8D8B8A6D
:101B40008988878684838281807F7E7D7B7A79788D
:101B500077767574737271706F6E6D6C6B6A69688D
:101B600067666564636261605F5E5D5C5B5A59587D
:101B7000585756555453525150504F4E4D4C4B4A56
:101B80004A4948474646454443424241403F3E3E1B
:101B90003D3C3B3B3A3938383736353534333232D1
:101BA0003130302F2E2E2D2C2B2B2A292928272778
:101BB00026252524232322212120201F1E1E1D1C13
:101BC0001C1B1B1A191918181716161515141313A0
:101BD00012121111100F0F0E0E0D0D0C0C0B0A0A24
:101BE000090908080707060605050404030302029D
:101BF00001000053657474696E67732053746F72CB
:101C0000656400290A002062797465733B20637261
:101C100063200053657474696E67732053746F7228
:101C20006564202800204D61726C696E3D56393024
:101C3000290A00454550524F4D2076657273696FF1
:101C40006E206D69736D617463682028454550523C
:101C50004F4D3D00454550524F4D206461746173B6
:101C6000697A65206572726F722E0A00202863619E
:101C70006C63756C6174656429210A0020213D2024
:101C800000454550524F4D20435243206D69736DBE
:101C900061746368202D202873746F726564292035
:101CA00000454550524F4D20436F72727570740A53
:101CB000002053697A653A2000496E6465783A20BD
:101CC000002062797465733B206372632000207387
:101CD000746F7265642073657474696E67732072C3
:101CE0006574726965766564202800454550524FD9
:101CF0004D20496E697469616C697A65640A0044B3
:101D0000656661756C742053657474696E677320C1
:101D1000526573746F7265640048617264636F64C6
:101D200065642044656661756C74205365747469DC
:101D30006E6773204C6F6164656400000048420068
:101D4000004842000070410000C8410000484300C4
:101D50000048430000484400004843B4000000B479
:101D600000000050000000B400000020286D6D2924
:101D70000020460020420020480020204D3134350C
:101D80002053004D6174657269616C2068656174EF
:101D9000757020706172616D6574657273002020CA
:101DA0004D3134392043203B20556E6974732069CE
:101DB0006E2043656C736975730A0054656D7065B8
:101DC00072617475726520556E69747300202047C6
:101DD0003231203B004C696E65617220556E69742A
:101DE000730024F4D43050C38D20C3A24117828BDA
:101DF0007011127A900D826CDA0AA861E108C75856
:101E00006607615142061F4B5E05C145A6041B4192
:101E10001204093D9703723931034136DB02663300
:101E20009202D4305302812E1D02642CEE01762AD8
:101E3000C501B128A101102781018F2564012B2440
:101E40004A01E1223401AD2120018D200C01811FC6
:101E5000FC00851EED00981DDF00B91CD200E71BB9
:101E6000C700201BBB00651AB200B319A9000A19EC
:101E7000A0006A189800D217920040178A00B61680
:101E8000840032167E00B41579003B157400C71427
:101E90006F0058146A00EE13660088136200261360
:101EA0005E00C8125B006D12570016125500C1117A
:101EB000510070114E0022114C00D61049008D10B7
:101EC00046004710450002104200C00F4000800F3E
:101ED0003E00420F3C00060F3A00CC0E3900930E34
:101EE00037005C0E3500270E3400F30D3200C10DB3
:101EF0003100900D2F00610D2F00320D2D00050DCA
:101F00002C00D90C2A00AF0C2A00850C28005D0C8F
:101F10002800350C27000E0C2500E90B2500C40B0A
:101F20002400A00B23007D0B22005B0B21003A0B49
:101F30002100190B2000F90A1F00DA0A1F00BB0A52
:101F40001E009D0A1D00800A1C00640A1C00480A2D
:101F50001C002C0A1B00110A1A00F7091A00DD09DF
:101F60001900C4091900AB091800930918007B096E
:101F70001700640917004D091700360916002009DB
:101F800015000B091500F6081500E1081500CC082E
:101F90001400B8081400A4081300910813007E0868
:101FA00013006B0812005908120047081200350888
:101FB0001200230811001208110001081000F10797
:101FC0001100E0071000D0071000C0070F00B10794
:101FD0001000A1070F0092070F0083070F0074077E
:101FE0000E0066070E0058070E004A070E003C0759
:101FF0000E002E070D0021070D0014070D00070726
:102000000D00FA060D00ED060C00E1060D00D406E9
:102010000C00C8060C00BC060C00B0060B00A506A0
:102020000C0099060B008E060B0083060B00780649
:102030000B006D060B0062060B0057060A004D06EA
:102040000A0043060B0038060A002E060A00240682
:1020500009001B060A0011060A0007060900FE0512
:102060000A00F4050900EB050900E2050900D9059D
:102070000900D0050900C7050800BF050900B6051D
:102080000900AD050800A50508009D050800950597
:1020900009008C050800840508007C05070075050B
:1020A00008006D050800650507005E050800560577
:1020B00007004F05080047050700400507003905E0
:1020C0000700320507002B050700240507001D0542
:1020D0000700160507000F050600090507000205A1
:1020E0000600FC040700F5040600EF040700E804FE
:1020F0000600E2040600DC040600D6040600D00454
:102100000700C9040500C4040600BE040600B804A4
:102110000600B2040600AC040600A6040500A104F3
:1021200006009B04050096040600900405008B043D
:10213000060085040500800405007B040500760484
:102140000600700405006B040500660405006104C8
:1021500005005C04050057040500520405004D0409
:10216000050048040400440405003F0405003A0447
:10217000040036040500310405002C040400280482
:102180000500230404001F0405001A0404001604BB
:102190000400120405000D040400090404000504F1
:1021A000040001040500FC030400F8030400F40328
:1021B0000400F0030400EC030400E8030400E4035B
:1021C0000400E0030400DC030400D8030400D4038B
:1021D0000300D1030400CD030400C9030400C503B8
:1021E00004000000000000000000000000000000EB
:1021F00000000000000000000000D1036D640357E0
:102200000D0347C6023B8B023259022B2E022509D1
:102210000221E8011CCC011AB201179B01148701AD
:102220001374011163010F54010E46010D39010DA4
:102230002C010B21010A17010A0D0109040108FCF8
:102240000008F40007ED0007E60007DF0006D900EC
:1022500006D30005CE0006C80005C30004BF000574
:10226000BA0004B60004B20004AE0004AA0004A63A
:102270000003A300049F00039C0003990003960041
:10228000039300029100038E00028C000389000278
:102290008700038400028200028000027E00027C2C
:1022A00000027A00027800027600017500027300D5
:1022B000027100017000026E00016D00026B0001EE
:1022C0006A000268000167000265000164000163A2
:1022D00000016200026000015F00015E00015D001C
:1022E000015C00015B00015A000159000158000126
:1022F00057000156000155000154000153000152DE
:1023000000015100005100015000014F00014E003A
:10231000014D00004D00014C00014B00014A00003E
:102320004A000149000148000048000147000146F9
:102330000000460001450000450001440001430043
:102340000043000142000042000141000041000141
:102350004000004000013F00003F00013E00003E01
:1023600000013D00003D00013C00003C00013B003D
:10237000003B00013A00003A00013900003900003A
:1023800039000138000038000137000037000037FD
:10239000000136000036000036000135000035002F
:1023A0000134000034000034000133000033000029
:1023B00033000132000032000032000131000031F0
:1023C000000031000031000130000030000030001A
:1023D000012F00002F00002F00002F00012E000011
:1023E0002E00002E00012D00002D00002D00002DDC
:1023F00000012C00002C00002C00002C00012B0000
:10240000002B00002B00002B00012A00002A0000F6
:102410002A00002A00002A000129000029000029C2
:1024200000002900012800002800002800002800E2
:1024300000280001270000270000270000270000D7
:1024400027000126000026000026000026000026A6
:1024500000002600012500002500002500002500C1
:1024600000250000250001240000240000240000B5
:102470002400002400002400012300002300002386
:10248000000023000023000023000122000022009E
:102490000022000022000022000022000022000191
:1024A0002100002100002100002100002100002166
:1024B000000021000120000020000020000020007A
:1024C000002000002000002000002000011F00006C
:1024D0001F00001F00001F00001F00001F00001F42
:1024E000000020436F756E7420583A004265640006
:1024F000453100626564002C2073797374656D202A
:1025000073746F7070656421204865617465725FD3
:1025100049443A20004572723A204D415854454D85
:1025200050004D415854454D50207472696767659D
:102530007265640048656174696E67204661696C04
:1025400065640048656174696E67206661696C65E1
:1025500064002001400130013B014001360160016F
:10256000310170012C0190012701B0012201C0014D
:102570001D01F00118011002130130020E0160026A
:10258000090190020401C002FF000003FA004003A9
:10259000F5008003F000D003EB002004E600700497
:1025A000E100E004DC004005D700C005D200400691
:1025B000CD00D006C8008007C3003008BE00F00878
:1025C000B900C009B400B00AAF00B00BAA00D00C2B
:1025D000A500000EA000500F9B00C01096005012E6
:1025E000910000148C00C0158700B0178200B0194C
:1025F0007D00D01B7800001E730040206E009022EA
:102600006900F024640040275F0090295A00E02B05
:102610005500102E500020304B0010324600E033A1
:10262000410090353C001037370070383200A03937
:102630002D00B03A2800A03B2300603C1E00103D56
:102640001900903D1400103E0F00703E0A00C03E7D
:102650000500003F0000403FFBFF803FF6FFC03F0A
:10266000F1FF4572723A204D494E54454D50004D90
:10267000494E54454D5020747269676765726564B0
:1026800000544845524D414C2052554E41574159F6
:1026900000546865726D616C2052756E6177617966
:1026A00000202F002042403A0020403A007C3C3E6F
:1026B0005E2B3D3F2F5B5D3B3A2C2A225C007C3C2D
:1026C0003E5E2B3D3F2F5B5D3B3A2C2A225C004354
:1026D000616E6E6F74206F70656E207375626469D1
:1026E0007220005761726E696E673A00534420434E
:1026F00061726420496E6974204661696C005344BC
:102700002063617264206F6B0A006F70656E526F98
:102710006F74206661696C65640A00766F6C756D14
:10272000652E696E6974206661696C65640A004E85
:102730006F20534420636172640A000A4D323400F2
:102740004D3233202573002E0A006F70656E2066AF
:1027500061696C65642C2046696C653A20004669A5
:102760006C652073656C65637465640A0020536949
:102770007A653A200046696C65206F70656E656405
:102780003A2000454E4420535542524F5554494E2D
:10279000450A002220706F73002220706172656EFE
:1027A000743A2200535542524F5554494E452043E6
:1027B000414C4C207461726765743A220053756213
:1027C00063616C6C204F766572666C6F770045783C
:1027D000636565646564206D617820535542524F8E
:1027E0005554494E452064657074683A00577269C3
:1027F00074696E6720746F2066696C653A200066A4
:102800007265736800646F696E67002066696C6545
:102810003A20004E6F7720002F6175746F25632E6C
:1028200067000001FFFFFFFFFFFFFFFFFFC183FF06
:10283000C0000007FFFFFFFFFFFFFFFFFF87E1FF73
:10284000E000000FFFFFFFFFFFFFFFFFFF0FF07F24
:10285000F000000E0000000000000000001FFC3F20
:10286000F000001C0000000000000000003FFE001F
:102870003800001C0000000000000000007FFF8006
:102880003800001C000000000000000001FF1FC015
:102890003800001C3C0000780F80000003FE0FC0D1
:1028A0003800001C3C0000783F8000000FFC07C08F
:1028B0003800001C3C0000F8FF8000001FFC0FC027
:1028C0003800001C3E0000F8FF8000007FF80F80F9
:1028D0003800001C1E0000F0F7800001FFF81F8088
:1028E0003800001C1F0001F007800007FFF01F8068
:1028F0003800001C1F0001E00780001FFFF03F8030
:102900003800001C0F0003E00780007FFFE07F809D
:102910003800001C0F8003E0078003FFFFC07F80AA
:102920003800001C078003C007801FFFFE00FF80E7
:102930003800001C078007C007803FFFF800FF80B9
:102940003800001C07C0078007807FFFE001FF0000
:102950003800001C03C0078007807FFFE001FF00F4
:102960003800001C03E00F8007807FFFC000FF00DD
:102970003800001C01E00F00078078000000FF0015
:102980003800001C01E01F00078078000000FF00F5
:102990003800001C01F01E00078078000000FF00D6
:1029A0003800001C00F01E00078078000000FF00C7
:1029B0003800001C00F83E00078078000000FF008F
:1029C0003800001C00F83C0007807FFFC000FF00BB
:1029D0003800001C00787C0007807FFFE001FF00CA
:1029E0003800001C007C7C0007807FFFE001FF00B6
:1029F0003800001C003C780007807FFFF001FF00DA
:102A00003800001C003EF80007803FFFFC00FF80FC
:102A10003800001C003EF000078007FFFFC07F80E9
:102A20003800001C001FF000078000FFFFE07F80DF
:102A30003800001C001FF0000780001FFFE03F80EF
:102A40003800001C000FE00007800007FFF03F8007
:102A50003800001C000FE00007800001FFF81F8015
:102A60003800001C000FC000078000007FF80F80B6
:102A70003800001C0007C000078000003FFC0FC0AA
:102A80003800001C0007C000078000000FFC07C0D2
:102A90003800001C000380000780000007FE07C00C
:102AA0003800001C000380000300000001FE0FC07E
:102AB0003800001C000000000000000000FF3F8004
:102AC0003800001C0000000000000000007FFF0034
:102AD0003800000E0000000000000000001FFC0095
:102AE0007800000FFFFFFFFFFFFFFFFFFF0FF03F2A
:102AF000F8000007FFFFFFFFFFFFFFFFFF87E0FF7A
:102B0000F0000003FFFFFFFFFFFFFFFFFFC383FF96
:102B1000E0000000000000000000000000000000D5
:102B200000000000000000000000000000000000A5
:102B30000000000000000000000000000000000095
:102B40000000000000000000000000000000000085
:102B50000000000FF40307C28067F9FF3E0A0183FB
:102B6000E000001FF6031FE6C06FFBFF7F1B018F15
:102B7000F000001807033876E06C0300631B819CAB
:102B80001800001807833006F06C0300619BC198A1
:102B90000000001807C36006F86C0300619BE1B0F9
:102BA0000000001806E36006DC6C0300639B71B054
:102BB0000000001FE67361E6CE6FF3FC7F1B39B0A7
:102BC000F0000018063B61F6C76C03007E1B1DB0C9
:102BD000F8000018061F6036C3EC0300671B0FB037
:102BE00018000018060F3036C1EC0300639B0798ED
:102BF0001800001806071876C0EC0300619B038CD0
:102C00003800001FF6030FE6C06FFBFE60DB018794
:102C1000F000000FF60107C6C027F9FE60DB008355
:102C2000E0006D61726C696E66772E6F726700648A
:102C30003963333864315320437573746F6D001FEB
:102C4000FFFFFFFFFFFF600000000001FF400000EA
:102C5000000000FF8000000000007F83CF00000C18
:102C6000303F87FF80000C301F867980000C000FFA
:102C70008C30C7838C30E78C30CFC7CC31F38C30AD
:102C8000DCECEC33B98C30D86C6C33198C30D06CF4
:102C90000C33198C30D86C0C33198C30DC6C0E3B37
:102CA000198C30CF7C079F198C30C77C038F19405B
:102CB000000000000002600000000000061FFFFF8F
:102CC000FFFFFFF82020506C616E6E6572427566E2
:102CD00066657242797465733A20002046726565B4
:102CE000204D656D6F72793A200020436F6D7069D9
:102CF0006C65643A204D61722032352032303236B4
:102D00000A00204C61737420557064617465643AE4
:102D100020323032362D30332D3139207C20417530
:102D200074686F723A2028563120456E67696E6567
:102D30006572696E672C205279616E2C206439634C
:102D40003338643153290A004D61726C696E206416
:102D50003963333864315320437573746F6D0A00DF
:102D600020536F6674776172652052657365740ACB
:102D700000205761746368646F67205265736574DF
:102D80000A002042726F776E206F7574205265734F
:102D900065740A002045787465726E616C20526516
:102DA0007365740A00506F77657255700A0073740A
:102DB0006172740A004D31303031006F6B00657202
:102DC000726F722077726974696E6720746F206603
:102DD000696C650A00446F6E6520736176696E6781
:102DE0002066696C652E0A00456E6473746F70739B
:102DF00000255320256320256320256320256300BB
:102E0000205A3A0020593A0020583A00656E6473FF
:102E1000746F7073206869743A20000000210024E8
:102E20000027002A002D00300033000101000004BB
:102E30000107010A0100002200250028002B002EB6
:102E4000003100340002010000050108010B0100FF
:102E50000020002300260029002C002F0032000053
:102E60000100000301060109010505050507050824
:102E7000080808020202020A0A08080404040401FD
:102E8000010101010101010303030303030303041F
:102E90000707070C0C0C0C0C0C0C0C0202020206AF
:102EA000060606060606060B0B0B0B0B0B0B0B019F
:102EB000021020200808102040102040800201024B
:102EC0000108040201010204081020408080402013
:102ED000100804020180040201804020100804024E
:102EE00001080402010102040810204080010204CC
:102EF000081020408000000A0B02090C0D0E080784
:102F000003040100000000000000000000000000B9
:102F100000000000000000000000000000000000B1
:102F2000001211100000000000000000000000006E
:102F30000000000000000000000000302E3032359C
:102F400000302E3100312E30004D6F766520246D1B
:102F50006D003130000000FA430000FA43000048E1
:102F6000434D6F76652041786973004D6F7665201B
:102F70002A004D6F766520400020002000200020B0
:102F8000002000486F6D696E67204661696C65645A
:102F900000FFFFFF220A00556E6B6E6F776E206395
:102FA0006F6D6D616E643A202200627573793A200C
:102FB00070617573656420666F7220696E707574D8
:102FC0000A00627573793A207061757365642066D2
:102FD0006F7220757365720A00627573793A20709A
:102FE000726F63657373696E670A005344204361AF
:102FF00072642052656D6F766564005344204361AE
:10300000726420496E736572746564004D313132AB
:103010002053687574646F776E0053544F50504559
:10302000442E20005072696E7465722073746F7044
:103030007065642064756520746F206572726F72AC
:10304000732E2046697820746865206572726F72ED
:1030500020616E6420757365204D39393920746F95
:1030600020726573746172742E202854656D7065CA
:103070007261747572652069732072657365742E50
:1030800020536574206974206166746572207265CE
:103090007374617274696E67290A004E6F20436809
:1030A00065636B73756D2077697468206C696E65F4
:1030B000206E756D6265722C204C617374204C69B2
:1030C0006E653A20004D3239004E6F2043686563CB
:1030D0006B73756D2077697468206C696E65206EFE
:1030E000756D6265722C204C617374204C696E653D
:1030F0003A2000636865636B73756D206D69736D4D
:10310000617463682C204C617374204C696E653A5D
:1031100020004C696E65204E756D62657220697382
:10312000206E6F74204C617374204C696E65204E64
:10313000756D6265722B312C204C617374204C6963
:103140006E653A20004D3131300053657269616C13
:1031500020737461747573206D69736D6174636835
:103160000A0053442072656164206572726F720AAE
:10317000004B494C4C20627574746F6E2F70696EF1
:10318000002121204B494C4C2063617573656420FC
:1031900062792000746F6F206D75636820696E61BD
:1031A00063746976652074696D65202D206375727E
:1031B00072656E7420636F6D6D616E643A200021DC
:1031C00021204B494C4C2063617573656420627902
:1031D0002000DB0FC93F45BCDA3F8FB30240FCF053
:1031E000274056946140FE4B9B4084A5D840E02385
:1031F0001841346A5641E859974164DBD5416E273E
:103200001742B4B75542CE1A9742C8AED542B588D8
:103210005A43D40684BFA65FA7BF7443E0BF10B172
:103220001AC01C2C58C0E8F697C0B849D6C04E4EFC
:1032300017C124D355C1802497C1A0B5D5C1121A96
:1032400017C244AE55C2781797C26CACD5C2678816
:103250005AC320746F6F206C6F6E6720657874722C
:103260007573696F6E2070726576656E7465640A39
:103270000020636F6C6420657874727573696F6E7B
:103280002070726576656E7465640A006F6B0A0063
:10329000526573656E643A200020453A00205A3A20
:1032A0000020593A00583A00204500205A00205981
:1032B0000020204D393220580053746570732070FF
:1032C000657220756E6974004572726F7220777234
:1032D0006974696E6720746F20454550524F4D21C7
:1032E0000A005631434E4320643963333864315306
:1032F0002052656164792E005072696E74696E6740
:103300002E2E2E005072696E7420506175736564A4
:103310000000A1F029F911241FBECFEFD1E2DEBFDA
:10332000CDBF00E00CBF84B78093BF1614BE0FB6AC
:10333000F894A89580916000886180936000109255
:1033400060000FBE13E0A0E0B2E0E0EAF4E102E0CA
:103350000BBF02C007900D92AE33B107D9F726E13B
:10336000AEE3B3E001C01D92AF3BB207E1F719E154
:10337000CAE8D9E100E006C021970109802FFE01CB
:103380000F947005C938D10780E00807A9F70E949B
:10339000ADF10D943F0A0C9400008091B40C882389
:1033A000F1F02FEF3FEF30932B0220932A02815050
:1033B0008093B40CEAE2FEE0882351F08150990B2F
:1033C0002BE1289FF001299FF00D1124EF5FF24FB0
:1033D0008BE1AFE0BEE001900D928A95E1F720917C
:1033E000B40C211105C08091BF0C80648093BF0C88
:1033F00081E090E0A0E0B0E0211103C080E090E027
:10340000DC018093B6069093B706A093B806B093FC
:10341000B9061092AF0681E08093C60683E08093E0
:1034200031020895CF93DF93EC01642F70E090E0B8
:1034300080E00E94BBFE29EC38EC48EC5EE30F9480
:10344000730620E030E040E05FE30F9497050F94AF
:10345000E0066883DF91CF910895E091DF0686E072
:10346000E802F0011124EE52F94F80919F0690E09E
:10347000958384830895CF93DF93EC01CB01BA0148
:103480000E94BBFE20E030E048EC52E40F9473064B
:103490002FE632E143E85AE30F9497056883798376
:1034A0008A839B83DF91CF910895CF93DF93EC01C3
:1034B000CB01BA010E94BBFE20E030E048EC52E4B0
:1034C0000F9473062FE632E143E85AE30F94970511
:1034D000688379838A839B83DF91CF910895CF930B
:1034E000DF93EC01CB01BA010E94B9FE2AE037ED6F
:1034F00043E25DE30F9473060F94E00668837983DB
:103500008A839B83DF91CF910895CF93DF93EC0162
:10351000CB01BA010E94BBFE2AE037ED43E25DE336
:103520000F947306688379838A839B83DF91CF919D
:103530000895CF93DF93EC01CB01BA010E94BBFE4B
:10354000688379838A839B83DF91CF910895FC01FF
:10355000518340830895CF93DF93EC01CB01BA01EF
:103560000E94BBFE20E030E04AE754E40F9473066B
:1035700027E137EB41ED58E30F9497056883798392
:103580008A839B83DF91CF9108958091F206909179
:10359000F3062091F0063091F1068217930724F488
:1035A0009093F1068093F00608958091F006909133
:1035B000F1062091F2063091F3062817390724F41A
:1035C0009093F3068093F2060895FC01A081B181E7
:1035D0001C92A281B3818C918F5F8C930280F381C6
:1035E000E02D90818CE0989F800D1124E5E0F6E1BC
:1035F00013AE84AF0895119800C09091020187FD29
:10360000909591709093000100C000C0119A00C085
:1036100000C0119800C09091020186FD90959170B4
:103620009093000100C000C0119A00C000C0119822
:1036300000C09091020185FD9095917090930001DA
:1036400000C000C0119A00C000C0119800C0909145
:10365000020184FD909591709093000100C000C01C
:10366000119A00C000C0119800C09091020183FD22
:10367000909591709093000100C000C0119A00C015
:1036800000C0119800C09091020182FD9095917048
:103690009093000100C000C0119A00C000C01198B2
:1036A00000C09091020181FD90959170909300016E
:1036B00000C000C0119A00C000C0119800C08091E5
:1036C000020181708093000100C000C0119A00C007
:1036D00000C0089590E080E00895CF93DF93C091FB
:1036E000CF06D091D00681E0CE31D105E4F020E0C4
:1036F00030E040E05FE36091CB067091CC068091B2
:10370000CD069091CE060F9497050F94DB066C1BA7
:103710007D0B77FF03C071956195710981E063307E
:1037200071050CF080E0DF91CF91089590E080E08A
:10373000089520914316833021F425FD0CC024FD0B
:103740000CC030E0A90102C0559547958A95E2F773
:10375000CA018170089581E0089580E00895809104
:10376000780484FD0BC080917A0487FD07C0909196
:103770007B04937081E019F480E0089581E008955E
:103780002FEB280F2A3108F047C0E22FF0E080919C
:10379000780490917904A0917A04B0917B0404C0DC
:1037A000B695A795979587952A95D2F780FD02C083
:1037B00081700895E95AFB4FE081EE2341F1809139
:1037C000680790916907E80FF92FF11D808190ED4E
:1037D000980F9A3030F08E3251F4818180538A30C4
:1037E00098F4F0935504E093540481E008958D32E9
:1037F00011F08B3249F4818190ED980F9A3088F363
:103800008E3211F48281EACFF0E0E0E0EACF10924C
:10381000550410925404E9CF80E00895B1DF882365
:1038200041F081E02091540430915504232B09F498
:1038300080E008958F929F92AF92BF92CF92DF92D5
:10384000EF92FF92CF936B017C0120E030E0A90161
:103850000E94B5FE87FD6AC06DEB77E386E095E3D5
:10386000A70196010F94970543E050E00E94EEAF48
:103870006B017C01C114D104E104F10409F45BC0C3
:10388000F7FE59C0F094E094D094C094C11CD11CB0
:10389000E11CF11C8DE28093A506C701B60128EE5C
:1038A00033E040E050E00F9401058AE0882E912C2F
:1038B000A12CB12CCA01B901A50194010F940105F5
:1038C000605D6093A6068EE28093A706C701B601ED
:1038D00024E630E040E050E00F940105CA01B90150
:1038E000A50194010F940105605D6093A806C701CE
:1038F000B601A50194010F940105C62FCA01B901B3
:10390000A50194010F940105605D6093A906C05D57
:10391000C093AA0685EA96E0CF91FF90EF90DF90E2
:10392000CF90BF90AF909F908F9008956DEB77E30D
:1039300086E095EB95CF80E2AECF0E94BBFE20E003
:1039400030E04AE754E40F94730627E137EB41ED8A
:1039500058E30F9497056ECFEF92FF920F931F934A
:103960008091920C05E81CE0882311F002E91CE02C
:103970008BEFE82E81E1F82E2DEF31E14EEC53E292
:1039800069E072E180E192E10E9475D31F910F918D
:10399000FF90EF900895EF92FF920F931F9384E5AD
:1039A000E82E81E1F82E10E000E028ED31E145EF4E
:1039B00055E466E571E18BE591E10E9475D31F91B5
:1039C0000F91FF90EF900895EF92FF920F931F9346
:1039D00085EBE82E8FE0F82E10E000E028EC3FE0C9
:1039E00045ED53E267EB7FE08EEB9FE00E9475D3DD
:1039F0001F910F91FF90EF90089563E972E084E6C4
:103A000090E00E94BFB270E060E08AE090E00E9427
:103A1000BFB26AEB72E084E690E00C94BFB2811111
:103A2000ECCF68E270E080E991E00C94BFB281E0F5
:103A300091E19093580680935706DFCF85EE90E191
:103A40009093580680935706D8CF82EC90E19093DC
:103A5000580680935706D1CF70E090E080E00E9436
:103A6000BBFE29EC38EC48EC5EE30F94730620E0D3
:103A700030E040E05FE30F9497050F94E006862F57
:103A80000C942DAECB010C94CEAD809131028823E5
:103A900041F060919F067091A00641E081E00C9496
:103AA000BDCA08950E941297BACF0E947EC1B7CFB7
:103AB0000E947FABA2CFCF92DF92EF92FF926B0179
:103AC0007C0120E030E0A9010E94B5FE87FD0EC018
:103AD0006DEB77E386E095E3A70196010F949705D8
:103AE000FF90EF90DF90CF900C943CB06DEB77E3BC
:103AF00086E095EBF1CF0E94BBFE2AE037ED43E272
:103B00005DE30F947306D7CF0E94BBFED4CF0E9413
:103B1000B9FE2AE037ED43E25DE30F9473060F949C
:103B2000E0060E94B9FE0C943CB0CF92DF92EF9277
:103B3000FF920E94BBFE20E030E048EC52E40F947C
:103B400073062FE632E143E85AE30F9497056B01C1
:103B50007C0120E030E0A9010E94B5FE2DEB37E3A7
:103B600046E055E387FF04C02DEB37E346E055EB15
:103B7000C701B6010F949705FF90EF90DF90CF90AB
:103B80000C9416CDCF92DF92EF92FF920E94BBFE73
:103B900020E030E048EC52E40F9473062FE632E167
:103BA00043E85AE30F9497056B017C0120E030E075
:103BB000A9010E94B5FE2DEB37E346E055E387FFF0
:103BC00004C02DEB37E346E055EBC701B6010F9477
:103BD0009705FF90EF90DF90CF900C9469B10C9413
:103BE000FA990C94FA990C94AC990C94AC990C94A5
:103BF000AC990C94AC990F931F930E94F6D000914E
:103C00008104109182042091830430918404061B66
:103C1000170B280B390B10161106120613068CF021
:103C2000209180042095209380046A547C4F8F4F0C
:103C30009F4F6093810470938204809383049093D8
:103C4000840481E090918004911101C080E01F9173
:103C50000F910895CF93DF93C091CF06D091D006F6
:103C6000209729F16091CB067091CC068091CD060A
:103C70009091CE060F94DB066E5F7F4F24976C17F2
:103C80007D07ACF470939D0560939C050E94F6D06F
:103C9000605A75418F4F9F4F60939E0570939F05AB
:103CA0008093A0059093A105DF91CF910895109284
:103CB0009E0510929F051092A0051092A105F4CFC9
:103CC000EF92FF920F931F93CF93DF93EC018B0141
:103CD0007A018A859B858617970731F088819981BB
:103CE0000E946DD41B870A87B701888199810E9441
:103CF000D9CB2E813F81820F932F911D9F838E837D
:103D000090E080E0DF91CF911F910F91FF90EF90B5
:103D100008959F92AF92BF92CF92DF92EF92FF925F
:103D20000F931F93CF93DF93EC018B01942EA52E5D
:103D30008A859B858617970731F0888199810E9433
:103D40006DD41B870A8788859985019649F5BC80C3
:103D50000A818E81080FC880D980D6015596ED91D1
:103D6000FC91C6011995B80EE92CFA2C10E0F70168
:103D700021917F01211127C08E819F81810F911D8B
:103D80009F838E8390E080E0DF91CF911F910F9110
:103D9000FF90EF90DF90CF90BF90AF909F900895ED
:103DA0000E811F81692D7A2D888199810E94D9CB3E
:103DB000800F912F911D288539852817390738F6EE
:103DC00081E090E0E1CF4B2D602FC6010E94C5D469
:103DD000080F180FCCCFDF92EF92FF920F931F9333
:103DE000CF93DF93EC01D62E1CAD0BAD7C0184E0AC
:103DF000E80EF11CE98DFA8DC7011995412F480F86
:103E00002D2D602FC7010E94C5D49BAD890F8BAFAC
:103E100081E090E0DF91CF911F910F91FF90EF90A3
:103E2000DF900895BF92CF92DF92EF92FF920F93AF
:103E30001F93CF93DF936B01E9014A3009F4DFC090
:103E4000453109F08AC0DB011296ED91FC91128197
:103E5000C681D78180910201809582708093000194
:103E600000C0000086E290E00197F0F7012F029574
:103E7000007F20E1B22EB10E88EFBDDB00C0000054
:103E800086E290E00197F0F7103208F0A5C0812F8C
:103E900080778068B0DB802FAEDB00C0000086E258
:103EA00090E00197F0F780E8A6DB80E0A4DB00C09B
:103EB000000086E290E00197F0F78AEF9CDB00C0FB
:103EC000000086E290E00197F0F77E01B0E1EB0E92
:103ED000F11C8881807F8FDB89918295807F8BDBCD
:103EE000CE15DF05B1F700C0000086E290E0019733
:103EF000F0F71F5F005F1B11BFCF8091020182703E
:103F000080930001D6011296ED91FC9180819281FF
:103F1000980F92832181921708F00DC294819F5FC0
:103F200094839381890F821710F08FEF820F838320
:103F3000458150E0440F551F70E060E08681978115
:103F40000F94B20981E0DF91CF911F910F91FF9003
:103F5000EF90DF90CF90BF900895FB010281138115
:103F6000423309F4EAC108F4F2C1463409F4DFC16E
:103F7000473409F4E7C14B3329F789812B81D801F4
:103F800012966C91129713964C91213009F424C229
:103F9000233009F005C238EF380F582F91E043174E
:103FA00008F490E041E0531708F040E031E0561784
:103FB00008F430E0592F542B352319F4942309F4D5
:103FC000C1CFFA8030E0F901EE58FD4FD080225980
:103FD0003D4FF901E080FDC180EE810F8068807F58
:103FE0000ADB812F8295807F06DB00C0000086E21D
:103FF00090E00197F0F780E8FEDA80E857CF8091F3
:10400000010182608093010180910201827080939E
:104010000001809101018160809301018091020182
:10402000817080930001099A119A80910201809514
:1040300082708093000100C0000086E290E001974A
:10404000F0F788E790E0CEE9DFE0FE013197F1F785
:104050000197D9F788EFCFDA00C0000086E290E040
:104060000197F0F780E2C7DA80E0C5DA00C000000F
:1040700086E290E00197F0F780E0BDDA80E8BBDAF5
:1040800000C0000086E290E00197F0F780E0B3DA2C
:1040900080E1B1DA00C0000086E290E00197F0F71D
:1040A000CE010197F1F7CE010197F1F7CE0101970B
:1040B000F1F7CE010197F1F7CE010197F1F7CE01AB
:1040C0000197F1F7CE010197F1F7CE010197F1F7D2
:1040D000CE010197F1F7CE010197F1F7CE010197DB
:1040E000F1F7CE010197F1F7CE010197F1F7CE017B
:1040F0000197F1F72197F1F780E27DDA80E47BDA2E
:1041000000C0000086E290E00197F0F780E273DAE9
:1041100080E671DA00C0000086E290E00197F0F7D7
:10412000D0E0C0E08C2F8077806865DA8D2F63DA6D
:1041300000C0000086E290E00197F0F780E85BDACB
:1041400080E059DA00C0000086E290E00197F0F7C5
:104150008AEF51DA00C0000086E290E00197F0F7A4
:1041600090E2119800C0809102018170809300015B
:1041700000C000C0119A00C000C0119800C080911A
:10418000020181708093000100C000C0119A00C03C
:1041900000C0119800C080910201817080930001DD
:1041A00000C000C0119A00C000C0119800C08091EA
:1041B000020181708093000100C000C0119A00C00C
:1041C00000C0119800C080910201817080930001AD
:1041D00000C000C0119A00C000C0119800C08091BA
:1041E000020181708093000100C000C0119A00C0DC
:1041F00000C0119800C0809102018170809300017D
:1042000000C000C0119A00C000C0119800C0809189
:10421000020181708093000100C000C0119A00C0AB
:1042200000C0119800C0809102018170809300014C
:1042300000C000C0119A00C000C0119800C0809159
:10424000020181708093000100C000C0119A00C07B
:1042500000C0119800C0809102018170809300011C
:1042600000C000C0119A00C000C0119800C0809129
:10427000020181708093000100C000C0119A00C04B
:1042800000C0119800C080910201817080930001EC
:1042900000C000C0119A00C000C0119800C08091F9
:1042A000020181708093000100C000C0119A00C01B
:1042B00000C0119800C080910201817080930001BC
:1042C00000C000C0119A00C000C0119800C08091C9
:1042D000020181708093000100C000C0119A00C0EB
:1042E00000C000C00000E6E2F0E03197F0F7915026
:1042F00009F037CF88EF7FD900C0000086E290E058
:104300000197F0F7CF5FD05FC03209F00BCF80E0AC
:1043100072D980EC70D900C0000086E290E001976D
:10432000F0F7809102018270809300010BCEF801BA
:104330008581888307CE80E006CEB901C8010E943E
:1043400073D100CED80111968C918883FBCD443176
:1043500091F0473109F0F6CD1882D80112968C9170
:104360001297898315968C91159781508A8313969D
:104370008C918B83E7CDD80115964C91159750E021
:10438000440F551F70E060E016968D919C910F943C
:10439000B209F80112828081815083831482D2CDC8
:1043A000481708F4CFCD861708F4CCCDFA80E12C5D
:1043B000D12C243070F406CEBE01C8010E9473D106
:1043C000898198819D0D98838E0D8983FF0C09F456
:1043D000B9CDF7FEF6CFF0CF58E0580F382FDECD2D
:1043E000CF93DF93809188048823B1F10E9402AEBD
:1043F000EC0144E050E060E270E087EF95E10F945B
:10440000B2091092FB1587EF95E1FC0101900020A5
:10441000E9F7CF01885F95418D30910548F44EE072
:1044200050E0481B590BBE0189509A4E0E94FEFD78
:1044300087EF95E1FC0101900020E9F7CF01885F4B
:1044400095418D30910540F4FC01E950FA4E25E28A
:1044500020830C9709F01182DF91CF91089570E0CD
:1044600060E088E00E9473CFA5980895809154047D
:1044700090915504009731F04AE050E070E060E020
:104480000C9488FC60E070E0CB01089580915404A6
:1044900090915504009731F04AE050E070E060E000
:1044A0000C945BFB60E070E0CB010895EFDFCB0183
:1044B0000895CF93DF93EB01B1D9882319F0DF91F1
:1044C000CF91F4CFCE01DF91CF910895DFDF97FD3B
:1044D0000AC0DCDF6F3F71058105910509F02CF4FE
:1044E000D5DF862F089580E008958FEF0895CF934C
:1044F000DF93D82FC62F92D9882389F08091540456
:1045000090915504892B29F4C1E08C2FDF91CF9134
:104510000895DCDFC1E08111F8CFC0E0F6CF8D2F28
:104520002FD9882391F3F0CF0F931F93CF938091CE
:10453000540490915504009709F1FC018F01C19139
:104540002C2F2F7DA1F0C53431F0C53621F0C835B0
:1045500011F0C83799F7F801108270E060E00E940E
:1045600005FAF801C083CF911F910F91089570E073
:1045700060E0CF911F910F910C9405FA60E070E01C
:10458000CB01F1CFCF92DF92EF92FF9283E546D934
:104590008823D1F0C9DF6B017C0120E030E0A90164
:1045A0000E94B5FE87FD36C020E030E048EC52E4C2
:1045B000C701B6010F94BE0764E61816F4F0C701F0
:1045C000B6010F94E00619C08FE428D9882321F1A1
:1045D000ABDF6B017C0120E030E0A9010E94B5FE59
:1045E00087FD18C020E030E04FE753E4C701B60173
:1045F0000F94BE076FEF181614F76093F7046093DB
:10460000F9048091F7048093A807FF90EF90DF9062
:10461000CF90089560E0F1CF8091A9078111F1CF8B
:1046200086E28093F7048093F904EBCFCF93DF9376
:10463000CDB7DEB720E2488559856F818E810E9413
:1046400061CBDF91CF910895EF92FF920F931F936B
:10465000CF93DF93E091F515F091F615E817F90780
:10466000B1F1F22EE42E8B01EC0110921F05E856F9
:10467000F04441F486E4C931D80721F41092820C49
:104680000E947EC4D093F615C093F51530E020E06B
:104690000093B6061093B7062093B8063093B90678
:1046A000E092AF06F092B006C856D04421F41092C2
:1046B000AE061092F30482E08093310281E0809391
:1046C000C6061092F4041092FA041092AC06DF9120
:1046D000CF911F910F91FF90EF900895CF93C1E07C
:1046E000C093AE0660931A0270931B0280931C0263
:1046F00090931D0220E040E070E060E080919D0614
:1047000090919E06A1DFC0931F05CF9108958091DF
:10471000BF0C84FF0E94AC8720E040E070E060E0C6
:1047200088ED92E691CF81E08093AE0620E040E0F4
:1047300070E060E085E093EB87CFE091F304E63032
:1047400028F581E08E0F8093F3044091B6065091D6
:10475000B7066091B8067091B9062091AF069091A6
:10476000B0068091AE0639E0E39FF0011124E354D6
:10477000FB4FA091F515B091F615B183A08342834C
:10478000538364837583268397838087089520E00D
:1047900040E070E060E088E690E456CF85E89CE079
:1047A0000E941F82F4DF0C947EC4CF930E947FABE3
:1047B0000E941297C82F882319F080E00E947696F5
:1047C0008C2F2DD9CF91E3CF83EC9FE090935806A7
:1047D00080935706DCCFCF93DF93C091F304CC23B3
:1047E000B1F0C150C093F30489E0C89FE0011124E7
:1047F000C354DB4F6A817B812F814E8188819981EF
:1048000023DF88858093AE06DF91CF910895DF91F5
:10481000CF91BDCF2F923F924F925F926F927F9236
:104820008F929F92AF92BF92CF92DF92EF92FF92C0
:104830000F931F93CF93DF930E94C2CC7090AF066B
:1048400085E0382E370C91E0C92E91E1D92ECFE1C9
:10485000D1E183E0682E671825EEA22E20E1B22E6A
:1048600008E211E182E0582E571832EC832E30E135
:10487000932E44E3E42E41E1F42E81E0482E4718C4
:10488000272C2194711038C08091B1068823B1F093
:1048900080913102882359F081E09091B106911105
:1048A00080E024E04AE451E1622D0E9461CB7394E0
:1048B0003710E8CF84E08093B0060BC08091AD063E
:1048C0001092AD06882321F386DF8091C6068823E7
:1048D000F9F2DF91CF911F910F91FF90EF90DF9050
:1048E000CF90BF90AF909F908F907F906F905F9090
:1048F0004F903F902F90089581E0781223C08091CF
:10490000B106813079F080913102882381F21F92C3
:10491000FF92EF924F9281E09091B106913039F180
:1049200080E025C08091AD061092AD06882359F332
:10493000909258068092570660D88091C6068823C8
:1049400011F3C7CF82E078123AC08091B10682306D
:10495000B1F080913102882309F4A9CF1F921F93EF
:104960000F935F9281E09091B1069230C9F68F93D8
:104970005DDE0F900F900F900F900F9098CF809169
:10498000AD061092AD06882321F3B0925806A0928E
:10499000570633D88091C6068823D9F29ACF8091E2
:1049A000AD061092AD06882389F0D0925806C092C9
:1049B000570623D88091C606882341F08ACF83E02A
:1049C000781275CF8091B106833049F3809131021E
:1049D000882309F46CCF1F92DF93CF936F9281E00D
:1049E0009091B106933009F09BCFC1CFCF93A5DE54
:1049F00085EF9EE09093A00680939F0620E040E024
:104A000070E060E085E49DE11FDEC1E0C093AE068A
:104A10000E941D9A1092AE06DEDEC093AE0684E0C0
:104A200093E30E949DC581EF9EE09093580680938A
:104A30005706CF910895CF93DF93CDB7DEB78E8120
:104A400087FF03C01092820C80E09091820C282F87
:104A5000082E000C330B9217130609F08CF4809388
:104A6000820C9E01275F3F4F4F8158856AE270E0BC
:104A70008AEC95E10E947DFE1092810C1092800CD0
:104A8000DF91CF910895CF93DF93CDB7DEB7A19794
:104A90000FB6F894DEBF0FBECDBF67FF03C0109204
:104AA000820C60E05091820C262F062E000C330BF6
:104AB0005217130609F014F56093820C19821F8EA9
:104AC000442329F14FE150E0BC01CE0101960E9440
:104AD000AFFD4BE250E0BE016F5F7F4F8AEC95E186
:104AE0000E94FEFD8AE290E099A388A3CE01809601
:104AF0000E945DC41092810C1092800CA1960FB69A
:104B0000F894DEBF0FBECDBFDF91CF9108954FE186
:104B100050E0BC01CE0101960E94FEFDDACF2F923B
:104B20003F924F925F926F927F928F929F92AF923D
:104B3000BF92CF92DF92EF92FF920F931F93CF938A
:104B4000DF9300D000D0CDB7DEB76C015B01742ECF
:104B500029013E2C6E2C2EEF95ED892E9EE0992E8C
:104B6000421304C029ED822E2EE0922E85E4282ED9
:104B7000872D072C000C990BFC01E659FD4FFE8395
:104B8000ED8316140CF07CC0AE014F5F5F4F6FE2F7
:104B90007CE7C5010E949DB47C0149815A816B81EB
:104BA0007C81411551056105710509F469C04B37D8
:104BB00051056105710509F4DBC04E3751056105EA
:104BC000710509F4D5C04A3251056105710509F036
:104BD00072C077FE17C0462D062C000C550B4F5F98
:104BE0005F4FB401C6010E94AFFDC6010E948FB4A1
:104BF000681AF60101900020E9F79F012150310960
:104C000059012DC05601FFEFAF1ABF0AF6012082ED
:104C10006A94662009F46DC0650181E04B37510547
:104C20006105710509F480E0870D8A3084F0560132
:104C3000FFEFAF1ABF0A6A946AE00F943C05805DEB
:104C4000F6018083662009F454C0892F650156015E
:104C5000FFEFAF1ABF0A805DF60180836A941614D5
:104C60000CF047C0462D062C000C550B4F5F5F4FD4
:104C7000B701C5010E94AFFDC5010E948FB4681A3B
:104C8000832D861926960FB6F894DEBF0FBECDBFD2
:104C9000DF91CF911F910F91FF90EF90DF90CF9018
:104CA000BF90AF909F908F907F906F905F904F904C
:104CB0003F902F900895443251056105710509F028
:104CC0003EC001151105C1F0462D062C000C550BF8
:104CD0004F5F5F4FB801C6010E94AFFDC6010E9441
:104CE0008FB4681AF60101900020E9F7CF0101970F
:104CF0005C016501570145CF4114510449F4D601C7
:104D0000F501EE16FF0669F184918D933196F9CF86
:104D1000462D062C000C550B4F5F5F4FB201C601AC
:104D20000E94FEFDC6010E948FB4681AF601019030
:104D30000020E9F79F01215031095901DACF4034B1
:104D4000510561057105D9F656013FEFA31AB30A63
:104D5000ED81FE818081F6018083F50110826A94E5
:104D6000C8CF97012A193B095901AC0CBD1CF5CFDE
:104D700077FE53CF30CFCF92DF92EF92FF920E9417
:104D8000F6D06B017C0126B191E026FB222720F9A9
:104D9000292786B18295817089273091B60490E0E9
:104DA00020FB90F980FB91F9932790FF69C0B70130
:104DB000A6014E5F5F4F6F4F7F4F4093B2045093F9
:104DC000B3046093B4047093B50491FF72C0B7014B
:104DD000A6014E5F5F4F6F4F7F4F4093AD045093DE
:104DE000AE046093AF047093B0049091B60420FBBE
:104DF00090F980FB91F99093B6042091B104822F31
:104E00008170269521702827880F282B8091AC046B
:104E10002817C9F0422F481B550BCA01059664E0BC
:104E200070E00F945D0581502093AC04823009F04E
:104E300059C08091AB04880F882329F09091BC045D
:104E4000890F8093BC048091B8049091B904A0911B
:104E5000BA04B091BB048C199D09AE09BF0918169C
:104E600019061A061B063CF0079B3FC032993DC04D
:104E700084E08093B704FF90EF90DF90CF90089587
:104E80004091B2045091B3046091B4047091B504A0
:104E90004C195D096E097F091416150616061706CA
:104EA0000CF493CF3091B10420FB30F93093B1046E
:104EB0008CCF4091AD045091AE046091AF047091DD
:104EC000B0044C195D096E097F0914161506160603
:104ED00017060CF48ACF9091B10480FB91F990935E
:104EE000B10483CF8093AB04A7CF80E0C2CFCF9231
:104EF000DF92EF92FF92CF93C82F0E94F6D06B0102
:104F00007C0124EA30E74DE75FE360911A0270917B
:104F10001B0280911C0290911D020E94B5FE87FD2C
:104F200018C08AEF90E0A0E0B0E08C0D9D1DAE1D92
:104F3000BF1D80939C0490939D04A0939E04B09306
:104F40009F04C0931802CF91FF90EF90DF90CF9015
:104F5000089580E090E0DC01E8CF8F3010F48F5F9F
:104F600008958F5008950F931F93CF93DF93EC0113
:104F70000FEF14E0F8012081318142815381688173
:104F800079818A819B810F949705688379838A83CD
:104F90009B83F80124813581468157816C817D8115
:104FA0008E819F810F9497056C837D838E839F8371
:104FB000F8012085318542855385688579858A8504
:104FC0009B850F949705688779878A879B87DF91F0
:104FD000CF911F910F9108959CE0899F902D1124EE
:104FE00082E0890F80937E04925F9093DE06209189
:104FF0003D16921710F480E0089590913F1698178F
:10500000D0F3662331F00E94D3D28091DE060E9455
:10501000D3D28091DE06482F4150550B90913D161A
:105020009417150644F720917E042150330B90917C
:105030003F1692171306FCF210924016825080938E
:10504000411681E00895CF9380917D04811154C071
:1050500010924016109241161092421610920E169F
:1050600010920D161092101610920F161092121622
:1050700081E08093111682E2809313161092181625
:1050800010921716ECE2F6E12AE336E18FEF8193F6
:105090002E173F07E1F7C1E0C09329162FE832EC45
:1050A00030931F1620931E16C093201610922116BF
:1050B0001092221690E490932316109224162EE854
:1050C00032EC30933B1620933A1621E132E03093D4
:1050D0000C1620930B1697E19093301691E1909364
:1050E000311690E190932E1680932D1680932C16F6
:1050F0000E94B1D1C0937D0481E080937F0481EC54
:105100009DE09093AF0C8093AE0C1092B10C109276
:10511000B00CCF91089520917C04022E000C330B2B
:105120008217130641F080937C046BE372E189E0FF
:1051300096E10C946DD40895EF92FF920F931F9314
:10514000CF93DF93CDB7DEB72C970FB6F894DEBFC1
:105150000FBECDBFFC0160817181828193816F3F61
:1051600071058105910509F0C0F485E096E10E9482
:10517000EB1EE0910D16F0910E163196849190E0A1
:105180002C960FB6F894DEBF0FBECDBFDF91CF9146
:105190001F910F91FF90EF9008951091401600918C
:1051A000411620917F0421110FC041EA5DE0602F7C
:1051B000812F0E9430D590E080E0180F10934016A8
:1051C000009341169927DCCFE0900D16F0900E1653
:1051D00029E036E13A832983212F30E03C832B8379
:1051E000202F30E03E832D8318861F822FEF3FEF64
:1051F0003A8729871C861B8629E83EE1AE014F5F6E
:105200005F4FBF01C7010E945BC3B70189E096E110
:105210000E946DD48F819885D0CF4F925F926F920C
:105220007F928F929F92AF92BF92CF92DF92EF9236
:10523000FF920F931F93CF93DF9300D000D01F9264
:105240001F92CDB7DEB76C015A014901FB01908175
:105250008CE0989F800D1124982FF6012081822FD9
:10526000880F820F880F8093401690934116411546
:10527000510509F4A0C0DA82C9827C836B830111D5
:1052800022C0AE014B5F5F4FB401C5010E949DB4C7
:105290005C018D819E81AF81B885892B8A2B8B2BF8
:1052A00009F489C0CE01059647DFF60180818F5F42
:1052B0008083853130F3CE0101960E94E51AE1CF5B
:1052C00010E075010DC07A0110E00AC0E114F1048C
:1052D000B9F38FEFE81AF80A10E0E114F10489F34A
:1052E000AE014B5F5F4FB401C5010E949DB45C01EC
:1052F0004D805E806F807884411451046104710494
:10530000E9F0F0E24F16510461047104A9F0D301F1
:10531000C2018D97A109B1090297A105B10570F0ED
:105320004BE2441651046104710441F05AE0451601
:10533000510461047104E9F5112341F2F601808101
:10534000482F410F5527551F4631510534F0853000
:1053500020F0CE0101960E94E51A81E0411451042B
:105360006104710409F480E0180FF6018081810F57
:105370008083112369F01150AE014B5F5F4FB40180
:10538000C7010E949DB47C01CE010596D5DEF1CF08
:10539000411451046104710471F0FAE04F16510494
:1053A0006104710409F08CCFCE0101960E94E51AC8
:1053B00088CF1F5F92CF28960FB6F894DEBF0FBE3E
:1053C000CDBFDF91CF911F910F91FF90EF90DF90B4
:1053D000CF90BF90AF909F908F907F906F905F9095
:1053E0004F900895CF92DF92EF92FF920F931F9309
:1053F000CF93DF93CDB7DEB72C970FB6F894DEBF0F
:105400000FBECDBFF0904016E090411620917F0472
:1054100021111DC041E85DE06E2D8F2D0E9430D519
:1054200090E080E0F80EF0924016E0924116992745
:105430002C960FB6F894DEBF0FBECDBFDF91CF9193
:105440001F910F91FF90EF90DF90CF900895C09043
:105450000D16D0900E1629E036E13A8329832F2DC0
:1054600030E03C832B832E2D30E03E832D83188645
:105470001F822FEF3FEF3A8729871C861B8609E89A
:105480001EE19E012F5F3F4F4FE25CE7BC01C6016A
:105490000E9420C4B60189E096E10E946DD48F81FC
:1054A0009885C0CFE5E0F6E183AF64AFCA019ACF3B
:1054B00099CFCF93DF93FC0125AD211104C021E0EA
:1054C00025AF0E94B1D1C0910B16D0910C16E0917E
:1054D0003A16F0913B1682E01995E0913A16F09158
:1054E0003B1681E0199530E020E044E1BE0189E0FF
:1054F00096E10E94ADD12CE336E147E1BE0189E09F
:1055000096E10E94ADD1E0913A16F0913B1680E011
:10551000DF91CF9119946F927F928F929F92AF9269
:10552000BF92CF92DF92EF92FF920F931F93CF9390
:10553000DF93CDB7DEB72C970FB6F894DEBF0FBE62
:10554000CDBF0E94F6D06B017C01809118028F3F85
:1055500009F443C080909C0490909D04A0909E0408
:10556000B0909F040E94F6D0861A970AA80AB90A3A
:10557000181419041A041B0484F18091840EEDDCC4
:105580009091850E891749F1E0911802E43008F0F6
:105590005CC024E0E29FF0011124EA58FD4F9080A6
:1055A000A180B280838019821A821B821C821D8294
:1055B0001E821F82188619861A861B861C869E01EB
:1055C0002F5F3F4F492D5A2D6B2D782D88E29CE09F
:1055D0000E94CCEC8FEF80931802CDDB8091B70452
:1055E00082FF53C08091AA04811151C091E0909331
:1055F000AA048091F90689278093AD061092F906D6
:1056000083E0809331021092B7040E94F6D06C5070
:105610007E4F8F4F9F4F6093B8047093B90480936F
:10562000BA049093BB0468E873E182E090E00E94C2
:10563000BFB216E0115059F10E9455B262E070E01D
:1056400080E090E00E945CD0F5CF6090600C70909C
:10565000610C0091620C1091630C90905C0CA09016
:105660005D0CB0905E0C80905F0C292D3A2D4B2D77
:10567000582DB301C8010F94BE0718160CF493CF30
:10568000962CA72CB02E812E8ECF1092AA0480913A
:10569000E7069091E806A091E906B091EA068C1918
:1056A0009D09AE09BF09181619061A061B060CF447
:1056B000DCC1D701C6018C599F4FAF4FBF4F8093BC
:1056C000E7069093E806A093E906B093EA06809176
:1056D000BC048091BC046091BC04062E000C770BC6
:1056E00077FF03C0719561957109643008F4B8C102
:1056F0008091FA048111A1C021E030E040E050E047
:10570000A091BC04A7FDAD5FA595A59549F1809139
:10571000BC049A2F990F990F891B8093BC04079B97
:105720001FC08091AD0681111BC00A2E000CBB0B5F
:105730000F9427050091B6061091B7062091B80680
:105740003091B906DC01CB01800F911FA21FB31F5E
:105750008093B6069093B706A093B806B093B906A7
:10576000D701C601805E9044AD4FBF4F8093A20425
:105770009093A304A093A404B093A50481E0809324
:1057800031021092F4048091F5159091F615885627
:10579000904441F480911902882309F49EC08150FD
:1057A000809319020E944B9D8090910790909207E0
:1057B000A0909307B090940781110E94589DD50145
:1057C000C4013AE0B695A795979587953A95D1F794
:1057D0008F3F4FEF9407A105B10520F08FEF9FEFAA
:1057E000A0E0B0E09695879520913102211189C003
:1057F0003091F40431113EC18091F5159091F61568
:105800008856904409F412C18091AE0681110EC1F0
:105810008091A2049091A304A091A404B091A50446
:105820008C199D09AE09BF09181619061A061B0620
:105830000CF40BC10E94C72308C170E090E080E027
:105840000E94B9FE20E030E040E85EE30E941AFFCB
:1058500020E030E04AE754E40E941AFF4B015C016B
:105860008091A6049091A704A091A804B091A904E6
:10587000A7019601281B390B4A0B5B0BCA01B90122
:105880000E94B9FE9B01AC01C501B4010F947306DF
:105890004B015C01C092A604D092A704E092A80438
:1058A000F092A90420E030E040EA52E40F94BE07F1
:1058B00024E630E040E050E087FF22CF20E030E0F7
:1058C00040EF51E4C501B4010F94BE072AE030E077
:1058D00040E050E087FF14CF0FCF8CE08093190297
:1058E0008091A0049091A104009729F001979093D2
:1058F000A1048093A00481E0809331021092F4040B
:1059000051CF009741F04091A0045091A104481755
:10591000590708F071CF8091F404811111C0223031
:1059200038F0243008F43FC0243011F410923102D2
:1059300085E096E1BEDD81E08093B2068093F404B9
:1059400083E0E9DB81E080932916E091F515F09181
:10595000F61519951092B2068091F404811127C0B2
:105960001092AD068091F5159091F61588569044E9
:1059700009F04ACF0E94F6D0DC01CB018C199D09B9
:10598000AE09BF090091A0041091A10430E020E00D
:10599000081719072A073B0708F02ECF9093A10498
:1059A0008093A00429CF81E080933102C1CF89E0A8
:1059B00096E10E943DD491E0811101C090E0909366
:1059C000F404882369F28091F5159091F6158856B4
:1059D0009044B9F40E94F6D0DC01CB018C199D09EA
:1059E000AE09BF090091A0041091A10430E020E0AD
:1059F000081719072A073B0720F49093A104809306
:105A0000A0042C960FB6F894DEBF0FBECDBFDF9179
:105A1000CF911F910F91FF90EF90DF90CF90BF90AB
:105A2000AF909F908F907F906F90089540E2C40E4A
:105A30004FEBD41E42E0E41EF11CC092A204D092AF
:105A4000A304E092A404F092A5048091F4048111CF
:105A5000D8CF809131028130A1F610923102D1CF9E
:105A60008091AD0681117CCE8ECE8091F40481119F
:105A700099CEC7CF009709F463CF45CF0F93E3DAF0
:105A80001092291685E096E114DD00910A16209106
:105A9000091640E060E089E096E10E9421D389E0A8
:105AA00096E10E943DD48111F0CF81E080932916C8
:105AB0003E98469A3C98449A3A98429A0F98179A78
:105AC0005AD91092BC040F910C947EC4CF92DF92ED
:105AD000EF92FF920F931F93CF93DF93CDB7DEB773
